{
  "contractName": "SimpleArtistToken",
  "abi": [
    {
      "constant": true,
      "inputs": [],
      "name": "applicationChecksum",
      "outputs": [
        {
          "name": "",
          "type": "bytes32"
        }
      ],
      "payable": false,
      "stateMutability": "view",
      "type": "function",
      "signature": "0x01dd0142"
    },
    {
      "constant": true,
      "inputs": [
        {
          "name": "interfaceId",
          "type": "bytes4"
        }
      ],
      "name": "supportsInterface",
      "outputs": [
        {
          "name": "",
          "type": "bool"
        }
      ],
      "payable": false,
      "stateMutability": "view",
      "type": "function",
      "signature": "0x01ffc9a7"
    },
    {
      "constant": true,
      "inputs": [],
      "name": "name",
      "outputs": [
        {
          "name": "",
          "type": "string"
        }
      ],
      "payable": false,
      "stateMutability": "view",
      "type": "function",
      "signature": "0x06fdde03"
    },
    {
      "constant": true,
      "inputs": [
        {
          "name": "tokenId",
          "type": "uint256"
        }
      ],
      "name": "getApproved",
      "outputs": [
        {
          "name": "",
          "type": "address"
        }
      ],
      "payable": false,
      "stateMutability": "view",
      "type": "function",
      "signature": "0x081812fc"
    },
    {
      "constant": false,
      "inputs": [
        {
          "name": "to",
          "type": "address"
        },
        {
          "name": "tokenId",
          "type": "uint256"
        }
      ],
      "name": "approve",
      "outputs": [],
      "payable": false,
      "stateMutability": "nonpayable",
      "type": "function",
      "signature": "0x095ea7b3"
    },
    {
      "constant": false,
      "inputs": [
        {
          "name": "account",
          "type": "address"
        }
      ],
      "name": "addWhitelisted",
      "outputs": [],
      "payable": false,
      "stateMutability": "nonpayable",
      "type": "function",
      "signature": "0x10154bad"
    },
    {
      "constant": true,
      "inputs": [],
      "name": "totalSupply",
      "outputs": [
        {
          "name": "",
          "type": "uint256"
        }
      ],
      "payable": false,
      "stateMutability": "view",
      "type": "function",
      "signature": "0x18160ddd"
    },
    {
      "constant": false,
      "inputs": [
        {
          "name": "from",
          "type": "address"
        },
        {
          "name": "to",
          "type": "address"
        },
        {
          "name": "tokenId",
          "type": "uint256"
        }
      ],
      "name": "transferFrom",
      "outputs": [],
      "payable": false,
      "stateMutability": "nonpayable",
      "type": "function",
      "signature": "0x23b872dd"
    },
    {
      "constant": true,
      "inputs": [
        {
          "name": "",
          "type": "uint256"
        }
      ],
      "name": "staticIpfsImageLink",
      "outputs": [
        {
          "name": "",
          "type": "string"
        }
      ],
      "payable": false,
      "stateMutability": "view",
      "type": "function",
      "signature": "0x261eb4e5"
    },
    {
      "constant": false,
      "inputs": [
        {
          "name": "account",
          "type": "address"
        }
      ],
      "name": "removeWhitelisted",
      "outputs": [],
      "payable": false,
      "stateMutability": "nonpayable",
      "type": "function",
      "signature": "0x291d9549"
    },
    {
      "constant": true,
      "inputs": [
        {
          "name": "owner",
          "type": "address"
        },
        {
          "name": "index",
          "type": "uint256"
        }
      ],
      "name": "tokenOfOwnerByIndex",
      "outputs": [
        {
          "name": "",
          "type": "uint256"
        }
      ],
      "payable": false,
      "stateMutability": "view",
      "type": "function",
      "signature": "0x2f745c59"
    },
    {
      "constant": true,
      "inputs": [
        {
          "name": "account",
          "type": "address"
        }
      ],
      "name": "isWhitelisted",
      "outputs": [
        {
          "name": "",
          "type": "bool"
        }
      ],
      "payable": false,
      "stateMutability": "view",
      "type": "function",
      "signature": "0x3af32abf"
    },
    {
      "constant": true,
      "inputs": [],
      "name": "tokenBaseIpfsURI",
      "outputs": [
        {
          "name": "",
          "type": "string"
        }
      ],
      "payable": false,
      "stateMutability": "view",
      "type": "function",
      "signature": "0x3e10169f"
    },
    {
      "constant": false,
      "inputs": [
        {
          "name": "from",
          "type": "address"
        },
        {
          "name": "to",
          "type": "address"
        },
        {
          "name": "tokenId",
          "type": "uint256"
        }
      ],
      "name": "safeTransferFrom",
      "outputs": [],
      "payable": false,
      "stateMutability": "nonpayable",
      "type": "function",
      "signature": "0x42842e0e"
    },
    {
      "constant": false,
      "inputs": [],
      "name": "renounceWhitelistAdmin",
      "outputs": [],
      "payable": false,
      "stateMutability": "nonpayable",
      "type": "function",
      "signature": "0x4c5a628c"
    },
    {
      "constant": true,
      "inputs": [],
      "name": "tokenBaseURI",
      "outputs": [
        {
          "name": "",
          "type": "string"
        }
      ],
      "payable": false,
      "stateMutability": "view",
      "type": "function",
      "signature": "0x4e99b800"
    },
    {
      "constant": true,
      "inputs": [
        {
          "name": "index",
          "type": "uint256"
        }
      ],
      "name": "tokenByIndex",
      "outputs": [
        {
          "name": "",
          "type": "uint256"
        }
      ],
      "payable": false,
      "stateMutability": "view",
      "type": "function",
      "signature": "0x4f6ccce7"
    },
    {
      "constant": true,
      "inputs": [
        {
          "name": "",
          "type": "uint256"
        }
      ],
      "name": "tokenIdToHash",
      "outputs": [
        {
          "name": "",
          "type": "bytes32"
        }
      ],
      "payable": false,
      "stateMutability": "view",
      "type": "function",
      "signature": "0x621a1f74"
    },
    {
      "constant": true,
      "inputs": [
        {
          "name": "tokenId",
          "type": "uint256"
        }
      ],
      "name": "ownerOf",
      "outputs": [
        {
          "name": "",
          "type": "address"
        }
      ],
      "payable": false,
      "stateMutability": "view",
      "type": "function",
      "signature": "0x6352211e"
    },
    {
      "constant": true,
      "inputs": [],
      "name": "maxInvocations",
      "outputs": [
        {
          "name": "",
          "type": "uint256"
        }
      ],
      "payable": false,
      "stateMutability": "view",
      "type": "function",
      "signature": "0x6cbdef61"
    },
    {
      "constant": true,
      "inputs": [
        {
          "name": "owner",
          "type": "address"
        }
      ],
      "name": "balanceOf",
      "outputs": [
        {
          "name": "",
          "type": "uint256"
        }
      ],
      "payable": false,
      "stateMutability": "view",
      "type": "function",
      "signature": "0x70a08231"
    },
    {
      "constant": false,
      "inputs": [
        {
          "name": "account",
          "type": "address"
        }
      ],
      "name": "addWhitelistAdmin",
      "outputs": [],
      "payable": false,
      "stateMutability": "nonpayable",
      "type": "function",
      "signature": "0x7362d9c8"
    },
    {
      "constant": true,
      "inputs": [],
      "name": "foundationPercentage",
      "outputs": [
        {
          "name": "",
          "type": "uint256"
        }
      ],
      "payable": false,
      "stateMutability": "view",
      "type": "function",
      "signature": "0x864329e3"
    },
    {
      "constant": true,
      "inputs": [],
      "name": "symbol",
      "outputs": [
        {
          "name": "",
          "type": "string"
        }
      ],
      "payable": false,
      "stateMutability": "view",
      "type": "function",
      "signature": "0x95d89b41"
    },
    {
      "constant": false,
      "inputs": [
        {
          "name": "to",
          "type": "address"
        },
        {
          "name": "approved",
          "type": "bool"
        }
      ],
      "name": "setApprovalForAll",
      "outputs": [],
      "payable": false,
      "stateMutability": "nonpayable",
      "type": "function",
      "signature": "0xa22cb465"
    },
    {
      "constant": false,
      "inputs": [
        {
          "name": "from",
          "type": "address"
        },
        {
          "name": "to",
          "type": "address"
        },
        {
          "name": "tokenId",
          "type": "uint256"
        },
        {
          "name": "_data",
          "type": "bytes"
        }
      ],
      "name": "safeTransferFrom",
      "outputs": [],
      "payable": false,
      "stateMutability": "nonpayable",
      "type": "function",
      "signature": "0xb88d4fde"
    },
    {
      "constant": true,
      "inputs": [
        {
          "name": "account",
          "type": "address"
        }
      ],
      "name": "isWhitelistAdmin",
      "outputs": [
        {
          "name": "",
          "type": "bool"
        }
      ],
      "payable": false,
      "stateMutability": "view",
      "type": "function",
      "signature": "0xbb5f747b"
    },
    {
      "constant": true,
      "inputs": [],
      "name": "invocations",
      "outputs": [
        {
          "name": "",
          "type": "uint256"
        }
      ],
      "payable": false,
      "stateMutability": "view",
      "type": "function",
      "signature": "0xbdaaf5fa"
    },
    {
      "constant": false,
      "inputs": [],
      "name": "renounceWhitelisted",
      "outputs": [],
      "payable": false,
      "stateMutability": "nonpayable",
      "type": "function",
      "signature": "0xd6cd9473"
    },
    {
      "constant": true,
      "inputs": [],
      "name": "artistAddress",
      "outputs": [
        {
          "name": "",
          "type": "address"
        }
      ],
      "payable": false,
      "stateMutability": "view",
      "type": "function",
      "signature": "0xd7eb3f3a"
    },
    {
      "constant": true,
      "inputs": [],
      "name": "pricePerTokenInWei",
      "outputs": [
        {
          "name": "",
          "type": "uint256"
        }
      ],
      "payable": false,
      "stateMutability": "view",
      "type": "function",
      "signature": "0xdf520efc"
    },
    {
      "constant": true,
      "inputs": [
        {
          "name": "owner",
          "type": "address"
        },
        {
          "name": "operator",
          "type": "address"
        }
      ],
      "name": "isApprovedForAll",
      "outputs": [
        {
          "name": "",
          "type": "bool"
        }
      ],
      "payable": false,
      "stateMutability": "view",
      "type": "function",
      "signature": "0xe985e9c5"
    },
    {
      "constant": true,
      "inputs": [
        {
          "name": "",
          "type": "bytes32"
        }
      ],
      "name": "hashToTokenId",
      "outputs": [
        {
          "name": "",
          "type": "uint256"
        }
      ],
      "payable": false,
      "stateMutability": "view",
      "type": "function",
      "signature": "0xf51f74a9"
    },
    {
      "constant": true,
      "inputs": [],
      "name": "foundationAddress",
      "outputs": [
        {
          "name": "",
          "type": "address"
        }
      ],
      "payable": false,
      "stateMutability": "view",
      "type": "function",
      "signature": "0xfcf07c6b"
    },
    {
      "inputs": [
        {
          "name": "_artistAddress",
          "type": "address"
        },
        {
          "name": "_pricePerTokenInWei",
          "type": "uint256"
        },
        {
          "name": "_tokenBaseURI",
          "type": "string"
        }
      ],
      "payable": false,
      "stateMutability": "nonpayable",
      "type": "constructor",
      "signature": "constructor"
    },
    {
      "anonymous": false,
      "inputs": [
        {
          "indexed": true,
          "name": "account",
          "type": "address"
        }
      ],
      "name": "WhitelistedAdded",
      "type": "event",
      "signature": "0xee1504a83b6d4a361f4c1dc78ab59bfa30d6a3b6612c403e86bb01ef2984295f"
    },
    {
      "anonymous": false,
      "inputs": [
        {
          "indexed": true,
          "name": "account",
          "type": "address"
        }
      ],
      "name": "WhitelistedRemoved",
      "type": "event",
      "signature": "0x270d9b30cf5b0793bbfd54c9d5b94aeb49462b8148399000265144a8722da6b6"
    },
    {
      "anonymous": false,
      "inputs": [
        {
          "indexed": true,
          "name": "account",
          "type": "address"
        }
      ],
      "name": "WhitelistAdminAdded",
      "type": "event",
      "signature": "0x22380c05984257a1cb900161c713dd71d39e74820f1aea43bd3f1bdd20961299"
    },
    {
      "anonymous": false,
      "inputs": [
        {
          "indexed": true,
          "name": "account",
          "type": "address"
        }
      ],
      "name": "WhitelistAdminRemoved",
      "type": "event",
      "signature": "0x0a8eb35e5ca14b3d6f28e4abf2f128dbab231a58b56e89beb5d636115001e165"
    },
    {
      "anonymous": false,
      "inputs": [
        {
          "indexed": true,
          "name": "from",
          "type": "address"
        },
        {
          "indexed": true,
          "name": "to",
          "type": "address"
        },
        {
          "indexed": true,
          "name": "tokenId",
          "type": "uint256"
        }
      ],
      "name": "Transfer",
      "type": "event",
      "signature": "0xddf252ad1be2c89b69c2b068fc378daa952ba7f163c4a11628f55a4df523b3ef"
    },
    {
      "anonymous": false,
      "inputs": [
        {
          "indexed": true,
          "name": "owner",
          "type": "address"
        },
        {
          "indexed": true,
          "name": "approved",
          "type": "address"
        },
        {
          "indexed": true,
          "name": "tokenId",
          "type": "uint256"
        }
      ],
      "name": "Approval",
      "type": "event",
      "signature": "0x8c5be1e5ebec7d5bd14f71427d1e84f3dd0314c0f7b2291e5b200ac8c7c3b925"
    },
    {
      "anonymous": false,
      "inputs": [
        {
          "indexed": true,
          "name": "owner",
          "type": "address"
        },
        {
          "indexed": true,
          "name": "operator",
          "type": "address"
        },
        {
          "indexed": false,
          "name": "approved",
          "type": "bool"
        }
      ],
      "name": "ApprovalForAll",
      "type": "event",
      "signature": "0x17307eab39ab6107e8899845ad3d59bd9653f200f220920489ca2b5937696c31"
    },
    {
      "constant": false,
      "inputs": [],
      "name": "purchase",
      "outputs": [
        {
          "name": "_tokenId",
          "type": "uint256"
        }
      ],
      "payable": true,
      "stateMutability": "payable",
      "type": "function",
      "signature": "0x64edfbf0"
    },
    {
      "constant": false,
      "inputs": [
        {
          "name": "_to",
          "type": "address"
        }
      ],
      "name": "purchaseTo",
      "outputs": [
        {
          "name": "_tokenId",
          "type": "uint256"
        }
      ],
      "payable": true,
      "stateMutability": "payable",
      "type": "function",
      "signature": "0xd1577656"
    },
    {
      "constant": false,
      "inputs": [
        {
          "name": "_artistAddress",
          "type": "address"
        }
      ],
      "name": "updateArtistAddress",
      "outputs": [
        {
          "name": "",
          "type": "bool"
        }
      ],
      "payable": false,
      "stateMutability": "nonpayable",
      "type": "function",
      "signature": "0xb784c966"
    },
    {
      "constant": false,
      "inputs": [
        {
          "name": "_pricePerTokenInWei",
          "type": "uint256"
        }
      ],
      "name": "updatePricePerTokenInWei",
      "outputs": [
        {
          "name": "",
          "type": "bool"
        }
      ],
      "payable": false,
      "stateMutability": "nonpayable",
      "type": "function",
      "signature": "0xed1c4ec4"
    },
    {
      "constant": false,
      "inputs": [
        {
          "name": "_foundationAddress",
          "type": "address"
        }
      ],
      "name": "updateFoundationAddress",
      "outputs": [
        {
          "name": "",
          "type": "bool"
        }
      ],
      "payable": false,
      "stateMutability": "nonpayable",
      "type": "function",
      "signature": "0xb7794fd4"
    },
    {
      "constant": false,
      "inputs": [
        {
          "name": "_foundationPercentage",
          "type": "uint256"
        }
      ],
      "name": "updateFoundationPercentage",
      "outputs": [
        {
          "name": "",
          "type": "bool"
        }
      ],
      "payable": false,
      "stateMutability": "nonpayable",
      "type": "function",
      "signature": "0xe00a9ed5"
    },
    {
      "constant": false,
      "inputs": [
        {
          "name": "_maxInvocations",
          "type": "uint256"
        }
      ],
      "name": "updateMaxInvocations",
      "outputs": [
        {
          "name": "",
          "type": "bool"
        }
      ],
      "payable": false,
      "stateMutability": "nonpayable",
      "type": "function",
      "signature": "0xee1a14c3"
    },
    {
      "constant": false,
      "inputs": [
        {
          "name": "_applicationChecksum",
          "type": "bytes32"
        }
      ],
      "name": "updateApplicationChecksum",
      "outputs": [
        {
          "name": "",
          "type": "bool"
        }
      ],
      "payable": false,
      "stateMutability": "nonpayable",
      "type": "function",
      "signature": "0xe81eba00"
    },
    {
      "constant": false,
      "inputs": [
        {
          "name": "_newBaseURI",
          "type": "string"
        }
      ],
      "name": "updateTokenBaseURI",
      "outputs": [
        {
          "name": "",
          "type": "bool"
        }
      ],
      "payable": false,
      "stateMutability": "nonpayable",
      "type": "function",
      "signature": "0x2295ee5b"
    },
    {
      "constant": false,
      "inputs": [
        {
          "name": "_tokenBaseIpfsURI",
          "type": "string"
        }
      ],
      "name": "updateTokenBaseIpfsURI",
      "outputs": [
        {
          "name": "",
          "type": "bool"
        }
      ],
      "payable": false,
      "stateMutability": "nonpayable",
      "type": "function",
      "signature": "0x893bc904"
    },
    {
      "constant": false,
      "inputs": [
        {
          "name": "_tokenId",
          "type": "uint256"
        },
        {
          "name": "_ipfsHash",
          "type": "string"
        }
      ],
      "name": "overrideDynamicImageWithIpfsLink",
      "outputs": [
        {
          "name": "",
          "type": "bool"
        }
      ],
      "payable": false,
      "stateMutability": "nonpayable",
      "type": "function",
      "signature": "0x427849d6"
    },
    {
      "constant": false,
      "inputs": [
        {
          "name": "_tokenId",
          "type": "uint256"
        }
      ],
      "name": "clearIpfsImageUri",
      "outputs": [
        {
          "name": "",
          "type": "bool"
        }
      ],
      "payable": false,
      "stateMutability": "nonpayable",
      "type": "function",
      "signature": "0xbf405274"
    },
    {
      "constant": true,
      "inputs": [
        {
          "name": "owner",
          "type": "address"
        }
      ],
      "name": "tokensOfOwner",
      "outputs": [
        {
          "name": "",
          "type": "uint256[]"
        }
      ],
      "payable": false,
      "stateMutability": "view",
      "type": "function",
      "signature": "0x8462151c"
    },
    {
      "constant": true,
      "inputs": [
        {
          "name": "_tokenId",
          "type": "uint256"
        }
      ],
      "name": "tokenURI",
      "outputs": [
        {
          "name": "",
          "type": "string"
        }
      ],
      "payable": false,
      "stateMutability": "view",
      "type": "function",
      "signature": "0xc87b56dd"
    }
  ],
  "bytecode": "0x60c0604052601c60808190527f68747470733a2f2f697066732e696e667572612e696f2f697066732f0000000060a09081526200004091600e91906200069f565b5060118054600160a060020a03191673f43ae50c468c3d3fa0c3dc3454e797317ef530781790556005601255620f424060135560006014553480156200008557600080fd5b5060405162003bf338038062003bf383398101806040526060811015620000ab57600080fd5b8151602083015160408401805192949193820192640100000000811115620000d257600080fd5b82016020810184811115620000e657600080fd5b81516401000000008111828201871017156200010157600080fd5b5050604080518082018252601181527f53696d706c65417274697374546f6b656e0000000000000000000000000000006020808301919091528251808401909352600383527f5341540000000000000000000000000000000000000000000000000000000000908301529194509092509050620001a77f01ffc9a700000000000000000000000000000000000000000000000000000000640100000000620002e3810204565b620001db7f80ac58cd00000000000000000000000000000000000000000000000000000000640100000000620002e3810204565b6200020f7f780e9d6300000000000000000000000000000000000000000000000000000000640100000000620002e3810204565b8151620002249060099060208501906200069f565b5080516200023a90600a9060208401906200069f565b506200026f7f5b5e139f00000000000000000000000000000000000000000000000000000000640100000000620002e3810204565b50506200028b33620003b2640100000000026401000000009004565b620002a433640100000000620010246200040482021704565b600f8054600160a060020a031916600160a060020a03851617905560108290558051620002d990600d9060208401906200069f565b5050505062000744565b7fffffffff0000000000000000000000000000000000000000000000000000000080821614156200037557604080517f08c379a000000000000000000000000000000000000000000000000000000000815260206004820152601c60248201527f4552433136353a20696e76616c696420696e7465726661636520696400000000604482015290519081900360640190fd5b7fffffffff00000000000000000000000000000000000000000000000000000000166000908152602081905260409020805460ff19166001179055565b620003cd600b826401000000006200294c620004c382021704565b604051600160a060020a038216907f22380c05984257a1cb900161c713dd71d39e74820f1aea43bd3f1bdd2096129990600090a250565b62000418336401000000006200056a810204565b1515620004ac57604080517f08c379a000000000000000000000000000000000000000000000000000000000815260206004820152602481018290527f57686974656c69737441646d696e526f6c653a2063616c6c657220646f65732060448201527f6e6f742068617665207468652057686974656c69737441646d696e20726f6c65606482015290519081900360840190fd5b620004c0816401000000006200058d810204565b50565b620004d88282640100000000620005df810204565b156200054557604080517f08c379a000000000000000000000000000000000000000000000000000000000815260206004820152601f60248201527f526f6c65733a206163636f756e7420616c72656164792068617320726f6c6500604482015290519081900360640190fd5b600160a060020a0316600090815260209190915260409020805460ff19166001179055565b600062000587600b8364010000000062002423620005df82021704565b92915050565b620005a8600c826401000000006200294c620004c382021704565b604051600160a060020a038216907fee1504a83b6d4a361f4c1dc78ab59bfa30d6a3b6612c403e86bb01ef2984295f90600090a250565b6000600160a060020a03821615156200067f57604080517f08c379a000000000000000000000000000000000000000000000000000000000815260206004820152602260248201527f526f6c65733a206163636f756e7420697320746865207a65726f20616464726560448201527f7373000000000000000000000000000000000000000000000000000000000000606482015290519081900360840190fd5b50600160a060020a03166000908152602091909152604090205460ff1690565b828054600181600116156101000203166002900490600052602060002090601f016020900481019282601f10620006e257805160ff191683800117855562000712565b8280016001018555821562000712579182015b8281111562000712578251825591602001919060010190620006f5565b506200072092915062000724565b5090565b6200074191905b808211156200072057600081556001016200072b565b90565b61349f80620007546000396000f3fe6080604052600436106102455763ffffffff7c010000000000000000000000000000000000000000000000000000000060003504166301dd0142811461024a57806301ffc9a71461027157806306fdde03146102ce578063081812fc14610358578063095ea7b31461039e57806310154bad146103d957806318160ddd1461040c5780632295ee5b1461042157806323b872dd146104d4578063261eb4e514610517578063291d9549146105415780632f745c59146105745780633af32abf146105ad5780633e10169f146105e0578063427849d6146105f557806342842e0e146106af5780634c5a628c146106f25780634e99b800146107075780634f6ccce71461071c578063621a1f74146107465780636352211e1461077057806364edfbf01461079a5780636cbdef61146107a257806370a08231146107b75780637362d9c8146107ea5780638462151c1461081d578063864329e3146108a0578063893bc904146108b557806395d89b4114610968578063a22cb4651461097d578063b7794fd4146109b8578063b784c966146109eb578063b88d4fde14610a1e578063bb5f747b14610af1578063bdaaf5fa14610b24578063bf40527414610b39578063c87b56dd14610b63578063d157765614610b8d578063d6cd947314610bb3578063d7eb3f3a14610bc8578063df520efc14610bdd578063e00a9ed514610bf2578063e81eba0014610c1c578063e985e9c514610c46578063ed1c4ec414610c81578063ee1a14c314610cab578063f51f74a914610cd5578063fcf07c6b14610cff575b600080fd5b34801561025657600080fd5b5061025f610d14565b60408051918252519081900360200190f35b34801561027d57600080fd5b506102ba6004803603602081101561029457600080fd5b50357bffffffffffffffffffffffffffffffffffffffffffffffffffffffff1916610d1a565b604080519115158252519081900360200190f35b3480156102da57600080fd5b506102e3610d52565b6040805160208082528351818301528351919283929083019185019080838360005b8381101561031d578181015183820152602001610305565b50505050905090810190601f16801561034a5780820380516001836020036101000a031916815260200191505b509250505060405180910390f35b34801561036457600080fd5b506103826004803603602081101561037b57600080fd5b5035610de9565b60408051600160a060020a039092168252519081900360200190f35b3480156103aa57600080fd5b506103d7600480360360408110156103c157600080fd5b50600160a060020a038135169060200135610e8c565b005b3480156103e557600080fd5b506103d7600480360360208110156103fc57600080fd5b5035600160a060020a0316611024565b34801561041857600080fd5b5061025f6110b5565b34801561042d57600080fd5b506102ba6004803603602081101561044457600080fd5b81019060208101813564010000000081111561045f57600080fd5b82018360208201111561047157600080fd5b8035906020019184600183028401116401000000008311171561049357600080fd5b91908080601f0160208091040260200160405190810160405280939291908181526020018383808284376000920191909152509295506110bb945050505050565b3480156104e057600080fd5b506103d7600480360360608110156104f757600080fd5b50600160a060020a0381358116916020810135909116906040013561113a565b34801561052357600080fd5b506102e36004803603602081101561053a57600080fd5b50356111d0565b34801561054d57600080fd5b506103d76004803603602081101561056457600080fd5b5035600160a060020a031661126b565b34801561058057600080fd5b5061025f6004803603604081101561059757600080fd5b50600160a060020a0381351690602001356112f9565b3480156105b957600080fd5b506102ba600480360360208110156105d057600080fd5b5035600160a060020a03166113b8565b3480156105ec57600080fd5b506102e36113cb565b34801561060157600080fd5b506102ba6004803603604081101561061857600080fd5b8135919081019060408101602082013564010000000081111561063a57600080fd5b82018360208201111561064c57600080fd5b8035906020019184600183028401116401000000008311171561066e57600080fd5b91908080601f016020809104026020016040519081016040528093929190818152602001838380828437600092019190915250929550611426945050505050565b3480156106bb57600080fd5b506103d7600480360360608110156106d257600080fd5b50600160a060020a038135811691602081013590911690604001356114b2565b3480156106fe57600080fd5b506103d76114ce565b34801561071357600080fd5b506102e36114d9565b34801561072857600080fd5b5061025f6004803603602081101561073f57600080fd5b5035611534565b34801561075257600080fd5b5061025f6004803603602081101561076957600080fd5b50356115da565b34801561077c57600080fd5b506103826004803603602081101561079357600080fd5b50356115ec565b61025f611681565b3480156107ae57600080fd5b5061025f611691565b3480156107c357600080fd5b5061025f600480360360208110156107da57600080fd5b5035600160a060020a0316611697565b3480156107f657600080fd5b506103d76004803603602081101561080d57600080fd5b5035600160a060020a0316611740565b34801561082957600080fd5b506108506004803603602081101561084057600080fd5b5035600160a060020a03166117ce565b60408051602080825283518183015283519192839290830191858101910280838360005b8381101561088c578181015183820152602001610874565b505050509050019250505060405180910390f35b3480156108ac57600080fd5b5061025f61182f565b3480156108c157600080fd5b506102ba600480360360208110156108d857600080fd5b8101906020810181356401000000008111156108f357600080fd5b82018360208201111561090557600080fd5b8035906020019184600183028401116401000000008311171561092757600080fd5b91908080601f016020809104026020016040519081016040528093929190818152602001838380828437600092019190915250929550611835945050505050565b34801561097457600080fd5b506102e36118ab565b34801561098957600080fd5b506103d7600480360360408110156109a057600080fd5b50600160a060020a038135169060200135151561190c565b3480156109c457600080fd5b506102ba600480360360208110156109db57600080fd5b5035600160a060020a03166119db565b3480156109f757600080fd5b506102ba60048036036020811015610a0e57600080fd5b5035600160a060020a0316611a70565b348015610a2a57600080fd5b506103d760048036036080811015610a4157600080fd5b600160a060020a03823581169260208101359091169160408201359190810190608081016060820135640100000000811115610a7c57600080fd5b820183602082011115610a8e57600080fd5b80359060200191846001830284011164010000000083111715610ab057600080fd5b91908080601f016020809104026020016040519081016040528093929190818152602001838380828437600092019190915250929550611b05945050505050565b348015610afd57600080fd5b506102ba60048036036020811015610b1457600080fd5b5035600160a060020a0316611b9e565b348015610b3057600080fd5b5061025f611bb1565b348015610b4557600080fd5b506102ba60048036036020811015610b5c57600080fd5b5035611bb7565b348015610b6f57600080fd5b506102e360048036036020811015610b8657600080fd5b5035611c39565b61025f60048036036020811015610ba357600080fd5b5035600160a060020a0316611ea1565b348015610bbf57600080fd5b506103d7612055565b348015610bd457600080fd5b5061038261205e565b348015610be957600080fd5b5061025f61206d565b348015610bfe57600080fd5b506102ba60048036036020811015610c1557600080fd5b5035612073565b348015610c2857600080fd5b506102ba60048036036020811015610c3f57600080fd5b50356120df565b348015610c5257600080fd5b506102ba60048036036040811015610c6957600080fd5b50600160a060020a038135811691602001351661214b565b348015610c8d57600080fd5b506102ba60048036036020811015610ca457600080fd5b5035612179565b348015610cb757600080fd5b506102ba60048036036020811015610cce57600080fd5b50356121e5565b348015610ce157600080fd5b5061025f60048036036020811015610cf857600080fd5b5035612251565b348015610d0b57600080fd5b50610382612263565b60155481565b7bffffffffffffffffffffffffffffffffffffffffffffffffffffffff19811660009081526020819052604090205460ff165b919050565b60098054604080516020601f6002600019610100600188161502019095169490940493840181900481028201810190925282815260609390929091830182828015610dde5780601f10610db357610100808354040283529160200191610dde565b820191906000526020600020905b815481529060010190602001808311610dc157829003601f168201915b505050505090505b90565b6000610df482612272565b1515610e70576040805160e560020a62461bcd02815260206004820152602c60248201527f4552433732313a20617070726f76656420717565727920666f72206e6f6e657860448201527f697374656e7420746f6b656e0000000000000000000000000000000000000000606482015290519081900360840190fd5b50600090815260026020526040902054600160a060020a031690565b6000610e97826115ec565b9050600160a060020a038381169082161415610f23576040805160e560020a62461bcd02815260206004820152602160248201527f4552433732313a20617070726f76616c20746f2063757272656e74206f776e6560448201527f7200000000000000000000000000000000000000000000000000000000000000606482015290519081900360840190fd5b33600160a060020a0382161480610f3f5750610f3f813361214b565b1515610fbb576040805160e560020a62461bcd02815260206004820152603860248201527f4552433732313a20617070726f76652063616c6c6572206973206e6f74206f7760448201527f6e6572206e6f7220617070726f76656420666f7220616c6c0000000000000000606482015290519081900360840190fd5b600082815260026020526040808220805473ffffffffffffffffffffffffffffffffffffffff1916600160a060020a0387811691821790925591518593918516917f8c5be1e5ebec7d5bd14f71427d1e84f3dd0314c0f7b2291e5b200ac8c7c3b92591a4505050565b61102d33611b9e565b15156110a9576040805160e560020a62461bcd02815260206004820152602481018290527f57686974656c69737441646d696e526f6c653a2063616c6c657220646f65732060448201527f6e6f742068617665207468652057686974656c69737441646d696e20726f6c65606482015290519081900360840190fd5b6110b28161228f565b50565b60075490565b60006110c6336113b8565b151561111e576040805160e560020a62461bcd02815260206004820152603a60248201526000805160206134348339815191526044820152600080516020613454833981519152606482015290519081900360840190fd5b815161113190600d906020850190613337565b50600192915050565b61114433826122d7565b15156111c0576040805160e560020a62461bcd02815260206004820152603160248201527f4552433732313a207472616e736665722063616c6c6572206973206e6f74206f60448201527f776e6572206e6f7220617070726f766564000000000000000000000000000000606482015290519081900360840190fd5b6111cb8383836123bc565b505050565b60186020908152600091825260409182902080548351601f6002600019610100600186161502019093169290920491820184900484028101840190945280845290918301828280156112635780601f1061123857610100808354040283529160200191611263565b820191906000526020600020905b81548152906001019060200180831161124657829003601f168201915b505050505081565b61127433611b9e565b15156112f0576040805160e560020a62461bcd02815260206004820152602481018290527f57686974656c69737441646d696e526f6c653a2063616c6c657220646f65732060448201527f6e6f742068617665207468652057686974656c69737441646d696e20726f6c65606482015290519081900360840190fd5b6110b2816123db565b600061130483611697565b8210611380576040805160e560020a62461bcd02815260206004820152602b60248201527f455243373231456e756d657261626c653a206f776e657220696e646578206f7560448201527f74206f6620626f756e6473000000000000000000000000000000000000000000606482015290519081900360840190fd5b600160a060020a03831660009081526005602052604090208054839081106113a457fe5b906000526020600020015490505b92915050565b60006113b2600c8363ffffffff61242316565b600e805460408051602060026001851615610100026000190190941693909304601f810184900484028201840190925281815292918301828280156112635780601f1061123857610100808354040283529160200191611263565b6000611431336113b8565b1515611489576040805160e560020a62461bcd02815260206004820152603a60248201526000805160206134348339815191526044820152600080516020613454833981519152606482015290519081900360840190fd5b600083815260186020908152604090912083516114a892850190613337565b5060019392505050565b6111cb8383836020604051908101604052806000815250611b05565b6114d7336124cb565b565b600d805460408051602060026001851615610100026000190190941693909304601f810184900484028201840190925281815292918301828280156112635780601f1061123857610100808354040283529160200191611263565b600061153e6110b5565b82106115ba576040805160e560020a62461bcd02815260206004820152602c60248201527f455243373231456e756d657261626c653a20676c6f62616c20696e646578206f60448201527f7574206f6620626f756e64730000000000000000000000000000000000000000606482015290519081900360840190fd5b60078054839081106115c857fe5b90600052602060002001549050919050565b60176020526000908152604090205481565b600081815260016020526040812054600160a060020a03168015156113b2576040805160e560020a62461bcd02815260206004820152602960248201527f4552433732313a206f776e657220717565727920666f72206e6f6e657869737460448201527f656e7420746f6b656e0000000000000000000000000000000000000000000000606482015290519081900360840190fd5b600061168c33611ea1565b905090565b60135481565b6000600160a060020a038216151561171f576040805160e560020a62461bcd02815260206004820152602a60248201527f4552433732313a2062616c616e636520717565727920666f7220746865207a6560448201527f726f206164647265737300000000000000000000000000000000000000000000606482015290519081900360840190fd5b600160a060020a03821660009081526003602052604090206113b290612513565b61174933611b9e565b15156117c5576040805160e560020a62461bcd02815260206004820152602481018290527f57686974656c69737441646d696e526f6c653a2063616c6c657220646f65732060448201527f6e6f742068617665207468652057686974656c69737441646d696e20726f6c65606482015290519081900360840190fd5b6110b281612517565b60606117d98261255f565b80548060200260200160405190810160405280929190818152602001828054801561182357602002820191906000526020600020905b81548152602001906001019080831161180f575b50505050509050919050565b60125481565b6000611840336113b8565b1515611898576040805160e560020a62461bcd02815260206004820152603a60248201526000805160206134348339815191526044820152600080516020613454833981519152606482015290519081900360840190fd5b815161113190600e906020850190613337565b600a8054604080516020601f6002600019610100600188161502019095169490940493840181900481028201810190925282815260609390929091830182828015610dde5780601f10610db357610100808354040283529160200191610dde565b600160a060020a03821633141561196d576040805160e560020a62461bcd02815260206004820152601960248201527f4552433732313a20617070726f766520746f2063616c6c657200000000000000604482015290519081900360640190fd5b336000818152600460209081526040808320600160a060020a03871680855290835292819020805460ff1916861515908117909155815190815290519293927f17307eab39ab6107e8899845ad3d59bd9653f200f220920489ca2b5937696c31929181900390910190a35050565b60006119e6336113b8565b1515611a3e576040805160e560020a62461bcd02815260206004820152603a60248201526000805160206134348339815191526044820152600080516020613454833981519152606482015290519081900360840190fd5b5060118054600160a060020a03831673ffffffffffffffffffffffffffffffffffffffff199091161790556001919050565b6000611a7b336113b8565b1515611ad3576040805160e560020a62461bcd02815260206004820152603a60248201526000805160206134348339815191526044820152600080516020613454833981519152606482015290519081900360840190fd5b50600f8054600160a060020a03831673ffffffffffffffffffffffffffffffffffffffff199091161790556001919050565b611b1084848461113a565b611b1c84848484612579565b1515611b98576040805160e560020a62461bcd02815260206004820152603260248201527f4552433732313a207472616e7366657220746f206e6f6e20455243373231526560448201527f63656976657220696d706c656d656e7465720000000000000000000000000000606482015290519081900360840190fd5b50505050565b60006113b2600b8363ffffffff61242316565b60145481565b6000611bc2336113b8565b1515611c1a576040805160e560020a62461bcd02815260206004820152603a60248201526000805160206134348339815191526044820152600080516020613454833981519152606482015290519081900360840190fd5b6000828152601860205260408120611c31916133b5565b506001919050565b606081611c4581612272565b1515611c9b576040805160e560020a62461bcd02815260206004820152601760248201527f546f6b656e20494420646f6573206e6f74206578697374000000000000000000604482015290519081900360640190fd5b600083815260186020526040812054600260001961010060018416150201909116041115611df857600e8054604080516020601f60026000196101006001881615020190951694909404938401819004810282018101909252828152611df19390929091830182828015611d505780601f10611d2557610100808354040283529160200191611d50565b820191906000526020600020905b815481529060010190602001808311611d3357829003601f168201915b5050506000878152601860209081526040918290208054835160026001831615610100026000190190921691909104601f810184900484028201840190945283815294509250830182828015611de75780601f10611dbc57610100808354040283529160200191611de7565b820191906000526020600020905b815481529060010190602001808311611dca57829003601f168201915b50505050506126f5565b9150611e9b565b600d8054604080516020601f60026000196101006001881615020190951694909404938401819004810282018101909252828152611e989390929091830182828015611e855780601f10611e5a57610100808354040283529160200191611e85565b820191906000526020600020905b815481529060010190602001808311611e6857829003601f168201915b5050505050611e9385612731565b6126f5565b91505b50919050565b601054600090341015611f24576040805160e560020a62461bcd02815260206004820152602560248201527f4d7573742073656e64206174206c65617374207072696365506572546f6b656e60448201527f496e576569000000000000000000000000000000000000000000000000000000606482015290519081900360840190fd5b601354601454611f3b90600163ffffffff61281516565b1115611f91576040805160e560020a62461bcd02815260206004820152601f60248201527f4d757374206e6f7420657863656564206d617820696e766f636174696f6e7300604482015290519081900360640190fd5b60408051436020808301829052835180840382018152928401909352815191909201205b6000818152601660205260409020541561200457611fda82600163ffffffff61281516565b60408051602080820184905282518083038201815291830190925280519101209092509050611fb5565b61200e8483612872565b600081815260166020908152604080832085905584835260179091529020819055612037612893565b60145461204b90600163ffffffff61281516565b6014555092915050565b6114d7336123db565b600f54600160a060020a031681565b60105481565b600061207e336113b8565b15156120d6576040805160e560020a62461bcd02815260206004820152603a60248201526000805160206134348339815191526044820152600080516020613454833981519152606482015290519081900360840190fd5b50601255600190565b60006120ea336113b8565b1515612142576040805160e560020a62461bcd02815260206004820152603a60248201526000805160206134348339815191526044820152600080516020613454833981519152606482015290519081900360840190fd5b50601555600190565b600160a060020a03918216600090815260046020908152604080832093909416825291909152205460ff1690565b6000612184336113b8565b15156121dc576040805160e560020a62461bcd02815260206004820152603a60248201526000805160206134348339815191526044820152600080516020613454833981519152606482015290519081900360840190fd5b50601055600190565b60006121f0336113b8565b1515612248576040805160e560020a62461bcd02815260206004820152603a60248201526000805160206134348339815191526044820152600080516020613454833981519152606482015290519081900360840190fd5b50601355600190565b60166020526000908152604090205481565b601154600160a060020a031681565b600090815260016020526040902054600160a060020a0316151590565b6122a0600c8263ffffffff61294c16565b604051600160a060020a038216907fee1504a83b6d4a361f4c1dc78ab59bfa30d6a3b6612c403e86bb01ef2984295f90600090a250565b60006122e282612272565b151561235e576040805160e560020a62461bcd02815260206004820152602c60248201527f4552433732313a206f70657261746f7220717565727920666f72206e6f6e657860448201527f697374656e7420746f6b656e0000000000000000000000000000000000000000606482015290519081900360840190fd5b6000612369836115ec565b905080600160a060020a031684600160a060020a031614806123a4575083600160a060020a031661239984610de9565b600160a060020a0316145b806123b457506123b4818561214b565b949350505050565b6123c78383836129d0565b6123d18382612ba0565b6111cb8282612c97565b6123ec600c8263ffffffff612cd516565b604051600160a060020a038216907f270d9b30cf5b0793bbfd54c9d5b94aeb49462b8148399000265144a8722da6b690600090a250565b6000600160a060020a03821615156124ab576040805160e560020a62461bcd02815260206004820152602260248201527f526f6c65733a206163636f756e7420697320746865207a65726f20616464726560448201527f7373000000000000000000000000000000000000000000000000000000000000606482015290519081900360840190fd5b50600160a060020a03166000908152602091909152604090205460ff1690565b6124dc600b8263ffffffff612cd516565b604051600160a060020a038216907f0a8eb35e5ca14b3d6f28e4abf2f128dbab231a58b56e89beb5d636115001e16590600090a250565b5490565b612528600b8263ffffffff61294c16565b604051600160a060020a038216907f22380c05984257a1cb900161c713dd71d39e74820f1aea43bd3f1bdd2096129990600090a250565b600160a060020a0316600090815260056020526040902090565b600061258d84600160a060020a0316612d7d565b151561259b575060016123b4565b6040517f150b7a020000000000000000000000000000000000000000000000000000000081523360048201818152600160a060020a03888116602485015260448401879052608060648501908152865160848601528651600095928a169463150b7a029490938c938b938b939260a4019060208501908083838e5b8381101561262e578181015183820152602001612616565b50505050905090810190601f16801561265b5780820380516001836020036101000a031916815260200191505b5095505050505050602060405180830381600087803b15801561267d57600080fd5b505af1158015612691573d6000803e3d6000fd5b505050506040513d60208110156126a757600080fd5b50517bffffffffffffffffffffffffffffffffffffffffffffffffffffffff19167f150b7a020000000000000000000000000000000000000000000000000000000014915050949350505050565b60408051602081810183526000808352835180830185528181528451928301909452815260609261272a928692869290612d85565b9392505050565b6060811515612774575060408051808201909152600181527f30000000000000000000000000000000000000000000000000000000000000006020820152610d4d565b8160005b811561278c57600101600a82049150612778565b6060816040519080825280601f01601f1916602001820160405280156127b9576020820181803883390190505b50905060001982015b851561280c57815160001982019160f860020a6030600a8a0601029184919081106127e957fe5b906020010190600160f860020a031916908160001a905350600a860495506127c2565b50949350505050565b60008282018381101561272a576040805160e560020a62461bcd02815260206004820152601b60248201527f536166654d6174683a206164646974696f6e206f766572666c6f770000000000604482015290519081900360640190fd5b61287c8282612fda565b6128868282612c97565b61288f81613120565b5050565b60003411156114d7576012546000906128c3906128b734606463ffffffff61316416565b9063ffffffff6131d316565b601154604051919250600160a060020a03169082156108fc029083906000818181858888f193505050501580156128fe573d6000803e3d6000fd5b506000612911348363ffffffff61326f16565b600f54604051919250600160a060020a03169082156108fc029083906000818181858888f193505050501580156111cb573d6000803e3d6000fd5b6129568282612423565b156129ab576040805160e560020a62461bcd02815260206004820152601f60248201527f526f6c65733a206163636f756e7420616c72656164792068617320726f6c6500604482015290519081900360640190fd5b600160a060020a0316600090815260209190915260409020805460ff19166001179055565b82600160a060020a03166129e3826115ec565b600160a060020a031614612a67576040805160e560020a62461bcd02815260206004820152602960248201527f4552433732313a207472616e73666572206f6620746f6b656e2074686174206960448201527f73206e6f74206f776e0000000000000000000000000000000000000000000000606482015290519081900360840190fd5b600160a060020a0382161515612aec576040805160e560020a62461bcd028152602060048201526024808201527f4552433732313a207472616e7366657220746f20746865207a65726f2061646460448201527f7265737300000000000000000000000000000000000000000000000000000000606482015290519081900360840190fd5b612af5816132cf565b600160a060020a0383166000908152600360205260409020612b1690613317565b600160a060020a0382166000908152600360205260409020612b379061332e565b600081815260016020526040808220805473ffffffffffffffffffffffffffffffffffffffff1916600160a060020a0386811691821790925591518493918716917fddf252ad1be2c89b69c2b068fc378daa952ba7f163c4a11628f55a4df523b3ef91a4505050565b600160a060020a038216600090815260056020526040812054612bca90600163ffffffff61326f16565b600083815260066020526040902054909150808214612c6757600160a060020a0384166000908152600560205260408120805484908110612c0757fe5b90600052602060002001549050806005600087600160a060020a0316600160a060020a0316815260200190815260200160002083815481101515612c4757fe5b600091825260208083209091019290925591825260069052604090208190555b600160a060020a0384166000908152600560205260409020805490612c909060001983016133f9565b5050505050565b600160a060020a0390911660009081526005602081815260408084208054868652600684529185208290559282526001810183559183529091200155565b612cdf8282612423565b1515612d5b576040805160e560020a62461bcd02815260206004820152602160248201527f526f6c65733a206163636f756e7420646f6573206e6f74206861766520726f6c60448201527f6500000000000000000000000000000000000000000000000000000000000000606482015290519081900360840190fd5b600160a060020a0316600090815260209190915260409020805460ff19169055565b6000903b1190565b6060808690506060869050606086905060608690506060869050606081518351855187518951010101016040519080825280601f01601f191660200182016040528015612dd9576020820181803883390190505b509050806000805b8851811015612e3f578881815181101515612df857fe5b90602001015160f860020a900460f860020a028383806001019450815181101515612e1f57fe5b906020010190600160f860020a031916908160001a905350600101612de1565b5060005b8751811015612ea1578781815181101515612e5a57fe5b90602001015160f860020a900460f860020a028383806001019450815181101515612e8157fe5b906020010190600160f860020a031916908160001a905350600101612e43565b5060005b8651811015612f03578681815181101515612ebc57fe5b90602001015160f860020a900460f860020a028383806001019450815181101515612ee357fe5b906020010190600160f860020a031916908160001a905350600101612ea5565b5060005b8551811015612f65578581815181101515612f1e57fe5b90602001015160f860020a900460f860020a028383806001019450815181101515612f4557fe5b906020010190600160f860020a031916908160001a905350600101612f07565b5060005b8451811015612fc7578481815181101515612f8057fe5b90602001015160f860020a900460f860020a028383806001019450815181101515612fa757fe5b906020010190600160f860020a031916908160001a905350600101612f69565b50909d9c50505050505050505050505050565b600160a060020a038216151561303a576040805160e560020a62461bcd02815260206004820181905260248201527f4552433732313a206d696e7420746f20746865207a65726f2061646472657373604482015290519081900360640190fd5b61304381612272565b15613098576040805160e560020a62461bcd02815260206004820152601c60248201527f4552433732313a20746f6b656e20616c7265616479206d696e74656400000000604482015290519081900360640190fd5b6000818152600160209081526040808320805473ffffffffffffffffffffffffffffffffffffffff1916600160a060020a0387169081179091558352600390915290206130e49061332e565b6040518190600160a060020a038416906000907fddf252ad1be2c89b69c2b068fc378daa952ba7f163c4a11628f55a4df523b3ef908290a45050565b600780546000838152600860205260408120829055600182018355919091527fa66cc928b5edb82af9bd49922954155ab7b0942694bea4ce44661d9a8736c6880155565b60008082116131bd576040805160e560020a62461bcd02815260206004820152601a60248201527f536166654d6174683a206469766973696f6e206279207a65726f000000000000604482015290519081900360640190fd5b600082848115156131ca57fe5b04949350505050565b60008215156131e4575060006113b2565b8282028284828115156131f357fe5b041461272a576040805160e560020a62461bcd02815260206004820152602160248201527f536166654d6174683a206d756c7469706c69636174696f6e206f766572666c6f60448201527f7700000000000000000000000000000000000000000000000000000000000000606482015290519081900360840190fd5b6000828211156132c9576040805160e560020a62461bcd02815260206004820152601e60248201527f536166654d6174683a207375627472616374696f6e206f766572666c6f770000604482015290519081900360640190fd5b50900390565b600081815260026020526040902054600160a060020a0316156110b2576000908152600260205260409020805473ffffffffffffffffffffffffffffffffffffffff19169055565b805461332a90600163ffffffff61326f16565b9055565b80546001019055565b828054600181600116156101000203166002900490600052602060002090601f016020900481019282601f1061337857805160ff19168380011785556133a5565b828001600101855582156133a5579182015b828111156133a557825182559160200191906001019061338a565b506133b1929150613419565b5090565b50805460018160011615610100020316600290046000825580601f106133db57506110b2565b601f0160209004906000526020600020908101906110b29190613419565b8154818355818111156111cb576000838152602090206111cb9181019083015b610de691905b808211156133b1576000815560010161341f56fe57686974656c6973746564526f6c653a2063616c6c657220646f6573206e6f742068617665207468652057686974656c697374656420726f6c65000000000000a165627a7a723058201e63af28202302cf21ad0c1ba34e86aee75509c3939b77d891bb221ce46034e20029",
  "source": "pragma solidity ^0.5.0;\n\nimport 'openzeppelin-solidity/contracts/token/ERC721/ERC721.sol';\nimport 'openzeppelin-solidity/contracts/token/ERC721/ERC721Enumerable.sol';\nimport \"openzeppelin-solidity/contracts/math/SafeMath.sol\";\nimport \"openzeppelin-solidity/contracts/access/roles/WhitelistedRole.sol\";\n\nimport \"./Strings.sol\";\nimport \"./CustomERC721Metadata.sol\";\n\ncontract SimpleArtistToken is CustomERC721Metadata, WhitelistedRole {\n    using SafeMath for uint256;\n\n    ////////////\n    // Events //\n    ////////////\n\n\n    ///////////////\n    // Variables //\n    ///////////////\n\n    string public tokenBaseURI;\n    string public tokenBaseIpfsURI = \"https://ipfs.infura.io/ipfs/\";\n\n    address payable public artistAddress;\n    uint256 public pricePerTokenInWei;\n\n    address payable public foundationAddress = 0xf43aE50C468c3D3Fa0C3dC3454E797317EF53078;\n    uint256 public foundationPercentage = 5; // 5% to foundation\n\n    uint256 public maxInvocations = 1000000;\n    uint256 public invocations = 0;\n\n    bytes32 public applicationChecksum;\n\n    mapping(bytes32 => uint256) public hashToTokenId;\n    mapping(uint256 => bytes32) public tokenIdToHash;\n\n    mapping(uint256 => string) public staticIpfsImageLink;\n\n\n    // FIXME checksum\n\n\n    ///////////////\n    // Modifiers //\n    ///////////////\n\n    modifier onlyValidTokenId(uint256 _tokenId) {\n        require(_exists(_tokenId), \"Token ID does not exist\");\n        _;\n    }\n\n    /////////////////\n    // Constructor //\n    /////////////////\n\n    constructor(address payable _artistAddress, uint256 _pricePerTokenInWei, string memory _tokenBaseURI) CustomERC721Metadata(\"SimpleArtistToken\", \"SAT\") public {\n        super.addWhitelisted(msg.sender);\n\n        artistAddress = _artistAddress;\n        pricePerTokenInWei = _pricePerTokenInWei;\n        tokenBaseURI = _tokenBaseURI;\n    }\n\n    //////////////////////////////\n    // Token Creation Functions //\n    //////////////////////////////\n\n    function purchase() public payable returns (uint256 _tokenId) {\n        return purchaseTo(msg.sender);\n    }\n\n    function purchaseTo(address _to) public payable returns (uint256 _tokenId) {\n        require(msg.value >= pricePerTokenInWei, \"Must send at least pricePerTokenInWei\");\n        require(invocations.add(1) <= maxInvocations, \"Must not exceed max invocations\");\n\n        uint256 number = block.number;\n        bytes32 hash = keccak256(abi.encodePacked(number));\n\n        while (hashToTokenId[hash] != 0) {\n            number = number.add(1);\n            hash = keccak256(abi.encodePacked(number));\n        }\n\n        _mint(_to, number);\n\n        hashToTokenId[hash] = number;\n        tokenIdToHash[number] = hash;\n\n        _splitFunds();\n\n        invocations = invocations.add(1);\n\n        return number;\n    }\n\n    function _splitFunds() internal {\n        if (msg.value > 0) {\n\n            // work out the amount to split and send it\n            uint256 foundationAmount = msg.value.div(100).mul(foundationPercentage);\n            foundationAddress.transfer(foundationAmount);\n\n            // send remaining amount to artist\n            uint256 remaining = msg.value.sub(foundationAmount);\n            artistAddress.transfer(remaining);\n        }\n    }\n\n    //BURN?\n\n    //////////////////////////\n    // Management functions //\n    //////////////////////////\n\n\n    function updateArtistAddress(address payable _artistAddress) public onlyWhitelisted returns (bool) {\n        artistAddress = _artistAddress;\n        return true;\n    }\n\n    function updatePricePerTokenInWei(uint256 _pricePerTokenInWei) public onlyWhitelisted returns (bool) {\n        pricePerTokenInWei = _pricePerTokenInWei;\n        return true;\n    }\n\n    function updateFoundationAddress(address payable _foundationAddress) public onlyWhitelisted returns (bool) {\n        foundationAddress = _foundationAddress;\n        return true;\n    }\n\n    function updateFoundationPercentage(uint256 _foundationPercentage) public onlyWhitelisted returns (bool) {\n        foundationPercentage = _foundationPercentage;\n        return true;\n    }\n\n    function updateMaxInvocations(uint256 _maxInvocations) public onlyWhitelisted returns (bool) {\n        maxInvocations = _maxInvocations;\n        return true;\n    }\n\n    function updateApplicationChecksum(bytes32 _applicationChecksum) public onlyWhitelisted returns (bool) {\n        applicationChecksum = _applicationChecksum;\n        return true;\n    }\n\n    function updateTokenBaseURI(string memory _newBaseURI) public onlyWhitelisted returns (bool) {\n        tokenBaseURI = _newBaseURI;\n        return true;\n    }\n\n    function updateTokenBaseIpfsURI(string memory _tokenBaseIpfsURI) public onlyWhitelisted returns (bool) {\n        tokenBaseIpfsURI = _tokenBaseIpfsURI;\n        return true;\n    }\n\n    function overrideDynamicImageWithIpfsLink(uint256 _tokenId, string memory _ipfsHash) public onlyWhitelisted returns (bool) {\n        staticIpfsImageLink[_tokenId] = _ipfsHash;\n        return true;\n    }\n\n    function clearIpfsImageUri(uint256 _tokenId) public onlyWhitelisted returns (bool) {\n        delete staticIpfsImageLink[_tokenId];\n        return true;\n    }\n\n    ////////////////////////\n    // Accessor functions //\n    ////////////////////////\n\n    function tokensOfOwner(address owner) external view returns (uint256[] memory) {\n        return _tokensOfOwner(owner);\n    }\n\n    function tokenURI(uint256 _tokenId) external view onlyValidTokenId(_tokenId) returns (string memory) {\n        // If we have an override then use it\n        if (bytes(staticIpfsImageLink[_tokenId]).length > 0) {\n            return Strings.strConcat(tokenBaseIpfsURI, staticIpfsImageLink[_tokenId]);\n        }\n\n        return Strings.strConcat(tokenBaseURI, Strings.uint2str(_tokenId));\n    }\n\n\n}\n",
  "sourcePath": "/Users/andy/workspace/artblocks-v3/contracts/SimpleArtistToken.sol",
  "compiler": {
    "name": "solc",
    "version": "0.5.0+commit.1d4f565a.Emscripten.clang"
  },
  "schemaVersion": "3.0.1",
  "updatedAt": "2019-07-23T09:14:53.091Z",
  "devdoc": {
    "methods": {
      "approve(address,uint256)": {
        "details": "Approves another address to transfer the given token ID The zero address indicates there is no approved address. There can only be one approved address per token at a given time. Can only be called by the token owner or an approved operator.",
        "params": {
          "to": "address to be approved for the given token ID",
          "tokenId": "uint256 ID of the token to be approved"
        }
      },
      "balanceOf(address)": {
        "details": "Gets the balance of the specified address.",
        "params": {
          "owner": "address to query the balance of"
        },
        "return": "uint256 representing the amount owned by the passed address"
      },
      "getApproved(uint256)": {
        "details": "Gets the approved address for a token ID, or zero if no address set Reverts if the token ID does not exist.",
        "params": {
          "tokenId": "uint256 ID of the token to query the approval of"
        },
        "return": "address currently approved for the given token ID"
      },
      "isApprovedForAll(address,address)": {
        "details": "Tells whether an operator is approved by a given owner.",
        "params": {
          "operator": "operator address which you want to query the approval of",
          "owner": "owner address which you want to query the approval of"
        },
        "return": "bool whether the given operator is approved by the given owner"
      },
      "name()": {
        "details": "Gets the token name",
        "return": "string representing the token name"
      },
      "ownerOf(uint256)": {
        "details": "Gets the owner of the specified token ID.",
        "params": {
          "tokenId": "uint256 ID of the token to query the owner of"
        },
        "return": "address currently marked as the owner of the given token ID"
      },
      "safeTransferFrom(address,address,uint256)": {
        "details": "Safely transfers the ownership of a given token ID to another address If the target address is a contract, it must implement `onERC721Received`, which is called upon a safe transfer, and return the magic value `bytes4(keccak256(\"onERC721Received(address,address,uint256,bytes)\"))`; otherwise, the transfer is reverted. Requires the msg.sender to be the owner, approved, or operator",
        "params": {
          "from": "current owner of the token",
          "to": "address to receive the ownership of the given token ID",
          "tokenId": "uint256 ID of the token to be transferred"
        }
      },
      "safeTransferFrom(address,address,uint256,bytes)": {
        "details": "Safely transfers the ownership of a given token ID to another address If the target address is a contract, it must implement `onERC721Received`, which is called upon a safe transfer, and return the magic value `bytes4(keccak256(\"onERC721Received(address,address,uint256,bytes)\"))`; otherwise, the transfer is reverted. Requires the msg.sender to be the owner, approved, or operator",
        "params": {
          "_data": "bytes data to send along with a safe transfer check",
          "from": "current owner of the token",
          "to": "address to receive the ownership of the given token ID",
          "tokenId": "uint256 ID of the token to be transferred"
        }
      },
      "setApprovalForAll(address,bool)": {
        "details": "Sets or unsets the approval of a given operator An operator is allowed to transfer all tokens of the sender on their behalf.",
        "params": {
          "approved": "representing the status of the approval to be set",
          "to": "operator address to set the approval"
        }
      },
      "supportsInterface(bytes4)": {
        "details": "See `IERC165.supportsInterface`.     * Time complexity O(1), guaranteed to always use less than 30 000 gas."
      },
      "symbol()": {
        "details": "Gets the token symbol",
        "return": "string representing the token symbol"
      },
      "tokenByIndex(uint256)": {
        "details": "Gets the token ID at a given index of all the tokens in this contract Reverts if the index is greater or equal to the total number of tokens.",
        "params": {
          "index": "uint256 representing the index to be accessed of the tokens list"
        },
        "return": "uint256 token ID at the given index of the tokens list"
      },
      "tokenOfOwnerByIndex(address,uint256)": {
        "details": "Gets the token ID at a given index of the tokens list of the requested owner.",
        "params": {
          "index": "uint256 representing the index to be accessed of the requested tokens list",
          "owner": "address owning the tokens list to be accessed"
        },
        "return": "uint256 token ID at the given index of the tokens list owned by the requested address"
      },
      "totalSupply()": {
        "details": "Gets the total amount of tokens stored by the contract.",
        "return": "uint256 representing the total amount of tokens"
      },
      "transferFrom(address,address,uint256)": {
        "details": "Transfers the ownership of a given token ID to another address. Usage of this method is discouraged, use `safeTransferFrom` whenever possible. Requires the msg.sender to be the owner, approved, or operator.",
        "params": {
          "from": "current owner of the token",
          "to": "address to receive the ownership of the given token ID",
          "tokenId": "uint256 ID of the token to be transferred"
        }
      }
    }
  },
  "userdoc": {
    "methods": {
      "constructor": "//////////////",
      "purchase()": {
        "notice": "///////////////////////////"
      },
      "tokensOfOwner(address)": {
        "notice": "/////////////////////"
      },
      "updateArtistAddress(address)": {
        "notice": "///////////////////////"
      }
    }
  }
}